{
  "_format": "hh-sol-artifact-1",
  "contractName": "Counter",
  "sourceName": "contracts/counter.sol",
  "abi": [
    {
      "anonymous": false,
      "inputs": [
        {
          "indexed": false,
          "internalType": "uint256",
          "name": "counter",
          "type": "uint256"
        }
      ],
      "name": "CounterInc",
      "type": "event"
    },
    {
      "inputs": [],
      "name": "count",
      "outputs": [],
      "stateMutability": "nonpayable",
      "type": "function"
    },
    {
      "inputs": [],
      "name": "getCounter",
      "outputs": [
        {
          "internalType": "uint32",
          "name": "",
          "type": "uint32"
        }
      ],
      "stateMutability": "view",
      "type": "function"
    }
  ],
  "bytecode": "0x608060405234801561001057600080fd5b5061046f806100206000396000f3fe608060405234801561001057600080fd5b50600436106100365760003560e01c806306661abd1461003b5780638ada066e14610045575b600080fd5b610043610063565b005b61004d610141565b60405161005a9190610265565b60405180910390f35b60008081819054906101000a900463ffffffff1680929190610084906102af565b91906101000a81548163ffffffff021916908363ffffffff160217905550506100f86040518060400160405280600981526020017f636f756e743a202564000000000000000000000000000000000000000000000081525060008054906101000a900463ffffffff1663ffffffff1661015a565b7feec7b728df2430a6685bba924a4a787b147d45a2b38034570f9fe9613a91ea4460008054906101000a900463ffffffff166040516101379190610320565b60405180910390a1565b60008060009054906101000a900463ffffffff16905090565b6101f282826040516024016101709291906103da565b6040516020818303038152906040527fb60e72cc000000000000000000000000000000000000000000000000000000007bffffffffffffffffffffffffffffffffffffffffffffffffffffffff19166020820180517bffffffffffffffffffffffffffffffffffffffffffffffffffffffff83818316178352505050506101f6565b5050565b61020d81610205610210610231565b63ffffffff16565b50565b60006a636f6e736f6c652e6c6f679050600080835160208501845afa505050565b61023c819050919050565b61024461040a565b565b600063ffffffff82169050919050565b61025f81610246565b82525050565b600060208201905061027a6000830184610256565b92915050565b7f4e487b7100000000000000000000000000000000000000000000000000000000600052601160045260246000fd5b60006102ba82610246565b915063ffffffff82036102d0576102cf610280565b5b600182019050919050565b6000819050919050565b6000819050919050565b600061030a61030561030084610246565b6102e5565b6102db565b9050919050565b61031a816102ef565b82525050565b60006020820190506103356000830184610311565b92915050565b600081519050919050565b600082825260208201905092915050565b60005b8381101561037557808201518184015260208101905061035a565b60008484015250505050565b6000601f19601f8301169050919050565b600061039d8261033b565b6103a78185610346565b93506103b7818560208601610357565b6103c081610381565b840191505092915050565b6103d4816102db565b82525050565b600060408201905081810360008301526103f48185610392565b905061040360208301846103cb565b9392505050565b7f4e487b7100000000000000000000000000000000000000000000000000000000600052605160045260246000fdfea26469706673582212203d9c793517c1506f5f28be56d100163ba8b789119da4929e4a6e33c295f760ed64736f6c63430008180033",
  "linkReferences": {},
  "deployedLinkReferences": {}
}